:020000040800F2
:1000000000000320111400089F070008A50700083E
:10001000AB070008B1070008B707000800000000A0
:10002000000000000000000000000000BD07000804
:10003000CB07000800000000D9070008E707000808
:1000400065140008651400086514000865140008AC
:10005000651400086514000865140008651400089C
:10006000651400086514000865140008651400088C
:10007000651400086514000865140008651400087C
:10008000651400086514000865140008651400086C
:10009000651400086514000865140008651400085C
:1000A000651400086514000865140008651400084C
:1000B000651400086514000865140008651400083C
:1000C000651400086514000865140008651400082C
:1000D000651400086514000865140008651400081C
:1000E000651400086514000865140008651400080C
:1000F00065140008651400086514000865140008FC
:1001000065140008651400086514000865140008EB
:1001100065140008651400086514000865140008DB
:1001200065140008651400086514000865140008CB
:0C01300065140008651400086514000840
:1001400010B5054C237833B9044B13B10448AFF311
:1001500000800123237010BD9000002000000000EB
:10016000603A000808B5034B1BB103490348AFF3DD
:10017000008008BD0000000094000020603A0008E4
:1001800080B485B000AF78604FF0B043DA6C4FF0C8
:10019000B0417B681343CB644FF0B043DA6C7B68AB
:1001A0001340FB60FB6800BF1437BD465DF8047B5D
:1001B000704780B500AF0120FFF7E2FF0220FFF794
:1001C000DFFF00BF80BD80B400AF4FF0B0431B68BD
:1001D0004FF0B04243F48033136000BFBD465DF87A
:1001E000047B704780B400AF4FF0B0431B684FF002
:1001F000B04223F48033136000BFBD465DF8047B3A
:10020000704780B400AF4FF0B0431B6803F4003375
:10021000B3F5003F01D1012300E000231846BD469D
:100220005DF8047B7047000080B483B000AF786055
:100230004FF0B0430A4AC3F89C204FF0B043D3F8C4
:100240009C3023F47C527B681B024FF0B041134377
:10025000C1F89C3000BF0C37BD465DF8047B704789
:10026000FECAFECA80B400AF034B1B68DBB218465F
:10027000BD465DF8047B70478475FF1F80B400AFF6
:10028000034B1B681B0A1846BD465DF8047B70478C
:100290008475FF1F80B582B002AF01F03BF900F01A
:1002A0002BF800F07DF8FFF784FF00F031FA00F042
:1002B00024F900224FF080614FF4807002F060FD5D
:1002C00000230093002300220021002000F0CCFC3A
:1002D000074A0849002001F077F800F0D5F90346F5
:1002E000002B01D000F0F6F900F078F8FCE700BF31
:1002F000803A0008883A000880B59AB000AF07F14C
:10030000200348220021184603F0A2FB3B1D0022D7
:100310001A605A609A60DA601A615A619A611F4BDA
:100320001B6823F4C0631D4A43F4007313601B4B26
:100330001B6803F4C0633B603B680A233B624FF4D5
:100340008073FB6240233B6305237B630023FB64D4
:1003500007F12003184602F05FF80346002B01D096
:1003600000F0B8F96F237B600123BB600023FB60C2
:1003700000233B6100237B610023BB610023FB6101
:100380003B1D0021184602F0BBFB0346002B01D0A9
:1003900000F0A0F900BF6837BD4680BD00040058DA
:1003A00080B594B000AF3B4650220021184603F0C0
:1003B0004FFB4FF400533B600023BB640023FB64FE
:1003C0003B46184602F0FFFF0346002B01D000F029
:1003D00081F900BF5037BD4680BD000080B582B0B6
:1003E00000AFFB1C01221946002000F0ABFB786037
:1003F0007B68002B2DD0FB78332B1BD0332B2ADCD2
:10040000312B02D0322B0FD025E0154B1B683E2B31
:1004100004D8134B1B680133114A1360104B1B683F
:10042000184600F077F817E00D4B1B68184600F0EF
:10043000B7F811E00A4B1B68002B04D0084B1B686F
:10044000013B074A1360064B1B68184600F062F830
:1004500002E000BF00E000BF00BF0837BD4680BD1E
:10046000AC00002080B586B000AF786007F10C03C7
:1004700019461A4803F063FAFB68B3F1FF3F26D030
:10048000FFF7FCFE7861FFF7EDFE3861FB68DAB23A
:100490007B681A70FB681A0A7B680133D2B21A7043
:1004A0007B6802333A69D2B21A707B6803337A6987
:1004B000D2B21A707B691A0A7B680433D2B21A70FE
:1004C0007B691A0C7B680533D2B21A7002E0786837
:1004D000FFF7C8FF00BF1837BD4680BDB000002041
:1004E00080B500AFFFF77EFE00BFFFF78AFE034630
:1004F000002BFAD100BF00BF80BD80B500AFFFF771
:1005000062FE00BFFFF77DFE0346002BFAD100BF5D
:1005100000BF80BD80B582B000AF7860FFF7E0FF1C
:100520007868FFF781FEFFF7E8FF7A68034900204B
:1005300000F04AFF00BF0837BD4680BDA83A00085A
:1005400080B582B000AF00237B6000237B600FE0AA
:100550007B6803F10053A3F51043D3E90023B3F103
:10056000FF3F08BFB2F1FF3F07D07B6808337B60D5
:100570007B68B3F5806FEBD300E000BF7B68B3F519
:10058000806F05D30549002000F01EFF00F0A2F89F
:100590007B6818460837BD4680BD00BFD03A0008CA
:1005A00080B586B000AF78600123FB7507F10803C2
:1005B0001846FFF757FF7B68DBB203F03F03DBB25F
:1005C000BB730023FB73FFF7BBFF38611C4B9B69B8
:1005D0001B4A43F040439361194B4CF2FA321A61C3
:1005E00001F046F90346FB753B6903F10051A1F5A3
:1005F000104107F10803D3E90023012001F0F4F8CA
:1006000003461A46FB7D1343FB7501F053F903467D
:100610001A46FB7D1343FB75FB7D002B01D000F0D8
:1006200059F83B6903F10053A3F510437A68054973
:10063000002000F0C9FE00BF1837BD4680BD00BFD6
:1006400000400058FC3A000880B485B000AF034673
:10065000FB714FF48063FB60FB68083BFB60FB6849
:1006600003F10053A3F51043BB60BB68DB79FA7953
:100670009A4202D0FB68002BEEDAFB68184614376A
:10068000BD465DF8047B704780B582B000AF0020A6
:10069000FFF7DAFF78607B68002B0EDB7B6803F1E5
:1006A0000053A3F510433B603B689B791A4607490A
:1006B000002000F089FE002304E00549002000F03E
:1006C00083FE012318460837BD4680BD383B00082D
:1006D000583B000880B400AF72B600BFFEE780B49C
:1006E00085B000AF78604FF0B0431A6D4FF0B04165
:1006F0007B6813430B654FF0B0431A6D7B68134062
:10070000FB60FB6800BF1437BD465DF8047B704793
:1007100080B500AF074B084A1A60064B00225A60AA
:10072000044803F0D7F80346002B01D0FFF7D2FFAF
:1007300000BF80BDB00000200010005880B596B00A
:1007400000AF786007F1080350220021184603F03B
:100750007FF97B681B680D4A934213D14FF40073F5
:10076000BB604FF080433B6407F10803184602F07A
:100770002AFE0346002B01D0FFF7ACFF4FF4802088
:10078000FFF7ADFF00BF5837BD4680BD00100058D1
:1007900080B400AF00BFBD465DF8047B704780B4F5
:1007A00000AFFEE780B400AFFEE780B400AFFEE725
:1007B00080B400AFFEE780B400AFFEE780B400AFC6
:1007C00000BFBD465DF8047B704780B400AF00BF3A
:1007D000BD465DF8047B704780B400AF00BFBD46E6
:1007E0005DF8047B704780B500AF00F0EDFE00BF00
:1007F00080BD000080B582B000AF264B3B60A822D0
:100800000021386803F024F93B6803221A613B6831
:1008100003225A613B68204A9A613B681F4ADA61A9
:100820003B684FF480621A623B6800229A623B6820
:1008300000225A623B680022DA623B68164A1A6656
:100840003B68174A5A663B6810229A663B6800224A
:100850001A673B680022DA663B6800225A67BFF3DA
:100860005F8F00237B600CE07B68C3F10F030D4AB0
:10087000D15C3A687B6813440A461A707B6801337E
:100880007B607B680F2BEFD9BFF35F8F00BF08370A
:10089000BD4680BDC4000020783B00086C010020EC
:1008A0006C050020B03B000880B58AB000AFF8604E
:1008B000B9607A6000233B62FB68DB68FB61FB6820
:1008C0001B69BB61BA69FB699A4205D9BA69FB69C0
:1008D000D31A013B7B6207E0FB689A68B969FB6940
:1008E000CB1A1344013B7B62FB689A68FB69D31AFD
:1008F0007A6A934228BF13467B627A6A7B68934286
:1009000028BF13467B62FB685A68FB6913447B610E
:100910007A6AB968786903F08DF83A6A7B6A134499
:100920003B62BA687B6A1344BB607A687B6AD31AFD
:100930007B60FA697B6A1344FB61FB689B68FA6918
:100940009A4201D10023FB61BFF35F8FFB68FA6914
:10095000DA607B68002BB2D13B6A18462837BD4667
:1009600080BD80B588B000AFF860B9607A60FB6880
:10097000DB68FB61FB689A68FB69D31ABB61BA69E3
:100980007B689A4211D9FB685A68FB6913443B6142
:100990007A68B968386903F04DF8BFF35F8FFA6978
:1009A0007B681A44FB68DA601FE0BB697B61FB6807
:1009B0005A68FB6913443B617A69B968386903F086
:1009C00039F87A68BB69D31A7B61FB685B683B6165
:1009D000BA68BB6913447A691946386903F02AF882
:1009E000BFF35F8FFB687A69DA6000BF2037BD46CE
:1009F00080BD80B487B000AF78607B681B693B61C5
:100A00007B68DB68FB603A69FB689A4208D87B68C0
:100A10009A68FB68D21A3B691344013B7B6104E08E
:100A20003A69FB68D31A013B7B617B6918461C3726
:100A3000BD465DF8047B704780B58CB000AFF860B0
:100A4000B9607A603E4B3B623B6A1B78DBB2002B9D
:100A500001D1FFF7CFFEFA6813465B001344DB00B9
:100A60006033374A1344FB61BB687B62FB691B69D7
:100A7000BB62FB69DB68BB610023FB62BA6ABB69CE
:100A80009A422BD9FB699A68BB6AD31A7B617A694F
:100A90007B68934228BF13467B61FB695A68BB6A37
:100AA00013443B617A693969786A02F0C3FFFA6AD4
:100AB0007B691344FB627A6A7B6913447B627A68C0
:100AC0007B69D31A7B60BA6A7B691344BB62FB699A
:100AD0009B68BA6A9A4201D10023BB62BA69BB6AB9
:100AE000D31A7B617A697B68934228BF13467B6186
:100AF0007B69002B19D0FB695A68BB6A13443B61C0
:100B00007A693969786A02F095FFFA6A7B69134459
:100B1000FB627A6A7B6913447B627A687B69D31AC9
:100B20007B60BA6A7B691344BB62FB6A002B02D00C
:100B3000FB69BA6A1A61FB6A18463037BD4680BD48
:100B4000C400002080B586B000AFF860B9607A605C
:100B5000EFF311834FF0200181F311887B617A68F4
:100B6000B968F868FFF768FF38617B6983F311881B
:100B70003B6918461837BD4680BD000080B588B077
:100B800000AFF860B9607A60BB68BB61FB685A1C53
:100B900013465B001344DB001F4A13447B617B69EF
:100BA0005B69022B29D0022B2ED8002B02D0012BFF
:100BB00013D029E07869FFF71CFF38613A697B6838
:100BC0009A4202D20023FB6121E07B68FB617A68D4
:100BD000B9697869FFF7C5FE19E07869FFF709FF81
:100BE00038617A683B69934228BF1346FB61FA6912
:100BF000B9697869FFF7B5FE09E07A68B96978697B
:100C0000FFF752FEF86102E00023FB6100BFFB69C1
:100C100018462037BD4680BDC400002080B588B08E
:100C200000AFF860B9607A600E4BFB61FB691B781E
:100C3000DBB2002B01D1FFF7DDFDEFF311834FF0A5
:100C4000200181F31188BB617A68B968F868FFF701
:100C500095FF7861BB6983F311887B69184620375B
:100C6000BD4680BDC400002080B58AB000AFF860EA
:100C7000B9607A603B60204B3B623B6A1B78DBB219
:100C8000002B01D1FFF7B6FD1B4BFB61FB68022B6C
:100C90002AD8EFF311834FF0200181F31188BB6153
:100CA000FB685A1C13465B001344DB00FA691344CB
:100CB0007B61FB68002B0ED07B69BA681A607B6988
:100CC0007A685A607B693A689A607B6900221A6187
:100CD0007B690022DA607B693A6B5A61BB6983F3F6
:100CE000118800237B6202E04FF0FF337B627B6A56
:100CF00018462837BD4680BDC400002080B584B0AA
:100D000000AF78600B46FB707B689B68FB60FB68FC
:100D10005A1C7B685B689A420ED87B681A68FB682D
:100D20001344FA781A70FB685A1C7B689A607B68D7
:100D3000DB685A1C7B68DA607B689A687B685B6852
:100D40009A4215D17B6818697B6819687B689B6833
:100D50001A46FFF763FF02467B689B689A4204D0FD
:100D60007B684FF0FF32DA6002E07B6800229A6015
:100D700000BF1037BD4680BD80B58AB000AFF860B7
:100D8000B9607A603B60BB683B6201237B620123F0
:100D9000FB6107E03A6A7B68B2FBF3F33B62FB69F5
:100DA0000133FB613A6A7B689A42F3D23A68FB6985
:100DB0009A4201D93B68FB617B6B03F00103002B76
:100DC00025D13B6B002B22D07B6B03F00203002B61
:100DD00005D03B68002B02D13023FB7601E02023B5
:100DE000FB760BE03B6B013B3B63FB7E1946F868EF
:100DF000FFF784FFFB68DB68002B07DB3B6B002BF6
:100E000005D0FA693B6B9A42ECD300E000BFFB6867
:100E1000DB68002B55DB3B68012B03D93B68013BAA
:100E20003B6009E0BA687B6AB2FBF3F37B617A69E5
:100E30007B689A4200D205E07B6A7A6802FB03F382
:100E40007B62E8E7BA687B6AB2FBF3F37B617B699C
:100E50007A6A02FB03F3BA68D31ABB601B4A7B6948
:100E600013441B781946F868FFF748FFFB68DB68F6
:100E7000002B08DB7A6A7B68B2FBF3F37B627B6A48
:100E8000002BDFD100E000BF7B6B03F00103002BE0
:100E900017D03B6B002B14D00AE03B6B013B3B634C
:100EA0002021F868FFF72AFFFB68DB68002B07DBCF
:100EB0003B6B002B05D0FA693B6B9A42EDD300E007
:100EC00000BF00BF2837BD4680BD00BFC43B00083F
:100ED00080B588B002AFF860B9607A603B60BB68EB
:100EE000002BB8BF5B423B6101237B6107E07B685D
:100EF0003A6992FBF3F33B617B6901337B617B6869
:100F00003A699A42F3DA3A687B699A4201D93B68B6
:100F10007B613B6A002B0AD0BB68002B04DB7B6A39
:100F200003F00403002B02D03B6A013B3B627B6A67
:100F300003F00203002B02D03B68002B1CD07B6A1D
:100F400003F00103002B17D13B6A002B14D00AE0F9
:100F50003B6A013B3B622021F868FFF7CFFEFB684C
:100F6000DB68002B07DB3B6A002B05D07A693B6A04
:100F70009A42EDD300E000BFFB68DB68002B4ADB40
:100F8000BB68002B07DABB685B42BB602D21F868A9
:100F9000FFF7B4FE08E07B6A03F00403002B03D0E4
:100FA0002B21F868FFF7AAFEFB68DB68002B32DB19
:100FB0007B6A03F00203002B1FD07B6A03F001035E
:100FC000002B1AD13B68002B17D13B6A002B14D0A1
:100FD0000AE03B6A013B3B623021F868FFF78EFE76
:100FE000FB68DB68002B07DB3B6A002B05D07A69C6
:100FF0003B6A9A42EDD300E000BFFB68DB68002B40
:1010000009DBB9687B6A01933B6A00933B687A68A5
:10101000F868FFF7B1FE00BF1837BD4680BD00007D
:1010200080B5A2B002AFF860B9607A6007F1100332
:101030003B6540237B650023BB65FB683B66002363
:10104000FB65BB681B7887F87F30BB680133BB60EA
:1010500097F87F30002B00F09F8197F87F30252B89
:1010600040F08D8100233B670123BB67BB681B7881
:1010700087F87F3097F87F30233B0D2B3ED801A2B5
:1010800052F823F0ED100008FD100008FD100008D4
:10109000FD100008FD100008FD100008FD100008FC
:1010A000FD100008DD100008FD100008BD1000084C
:1010B000FD100008FD100008CD1000083B6F43F044
:1010C00001033B67BB680133BB601AE03B6F43F031
:1010D00002033B67BB680133BB6012E03B6F43F028
:1010E00004033B67BB680133BB600AE03B6F43F01E
:1010F00008033B67BB680133BB6002E00023BB67AA
:1011000000BFBB6F002BB1D10023FB66BB681B780F
:1011100087F87F3097F87F302F2B12D997F87F30E0
:10112000392B0ED8BB680133BB60FA6E13469B00A7
:1011300013445B001A4697F87F301344303BFB663C
:10114000E4E700237B67BB681B7887F87F3097F85C
:101150007F302E2B1DD1BB680133BB60BB681B7871
:1011600087F87F3097F87F302F2B12D997F87F3090
:10117000392B0ED8BB680133BB607A6F13469B00D6
:1011800013445B001A4697F87F301344303B7B676B
:10119000E4E7BB681B7887F87F3097F87F306C2BCB
:1011A00003D097F87F30682B07D1BB680133BB6051
:1011B000BB681B7887F87F30EFE797F87F30252BE7
:1011C00000F0D180252BC0F2D580782B00F3D2809F
:1011D000582BC0F2CF80583B202B00F2CB8001A2CD
:1011E00052F823F0DB12000875130008751300088D
:1011F00075130008751300087513000875130008AF
:10120000751300087513000875130008751300089E
:10121000691200088F120008751300087513000882
:10122000751300087513000875130008751300087E
:10123000751300087513000875130008751300086E
:101240007513000841130008751300087513000892
:101250000113000875130008B51200087513000883
:1012600075130008DB1200087B681B68191D7A687B
:1012700011601B68BB67BB6F87F8673097F8672002
:1012800007F1500311461846FFF738FD73E07B68FD
:101290001B68191D7A6811601B68BB6707F1500055
:1012A0003B6F0193FB6E00937B6F0A22B96FFFF7D0
:1012B0000FFE60E07B681B68191D7A6811601B686F
:1012C000BB67B96F07F150003B6F0193FB6E009352
:1012D0007B6F0A22FFF750FD4DE07B681B68191DEC
:1012E0007A6811601B68BB67B96F07F150003B6FEC
:1012F0000193FB6E00937B6F1022FFF73DFD3AE0F8
:101300007B681B68191D7A6811601B68BB66BB6E21
:101310001B7887F87F30BB6E0133BB6697F87F3050
:10132000002B0BD097F87F2007F150031146184689
:10133000FFF7E4FCFB6D002BE9DA1CE000BF1AE0CC
:101340007B681B68191D7A6811601B68BB67B96FE1
:1013500007F1500000230193082300930823102273
:10136000FFF70AFD07E007F1500325211846FFF7B4
:10137000C5FC00E000BFBB680133BB6007E097F825
:101380007F2007F1500311461846FFF7B7FCFB6DAD
:10139000002BBFF656AE00E000BFFB6D002B0DDD4D
:1013A000BB6D002B06D0BA6D07F110031946F86823
:1013B000FFF734FCFB6DBA6D1344FB65FB6D1846FB
:1013C0008037BD4680BD00BF0EB480B585B000AF8C
:1013D000786007F12003BB6007F108031A46F9693A
:1013E0007868FFF71DFEF860FB6818461437BD46A5
:1013F000BDE8804003B07047D458C4500433C418CB
:101400008C42F9D37047036004308842FBD37047A5
:101410000C48854600F028F80B480C490C4A00237C
:10142000FFF7EDFF0B480C490023FFF7EEFF0B48D9
:101430000B490023FFF7E9FF02F0D8FAFEF72AFF75
:10144000FEE70000000003200800002090000020BC
:101450005C3C00089000002098050020000003205C
:1014600000000320FEE7000080B400AF264B0022FE
:101470009A60254BD3F88830234A43F47003C2F8AE
:1014800088304FF0B0431B684FF0B04243F0010387
:1014900013604FF0B0434FF4E0229A604FF0B04336
:1014A0001A684FF0B041194B13400B604FF0B04336
:1014B000D3F894304FF0B04223F00503C2F89430D3
:1014C0004FF0B043D3F898304FF0B04223F001030F
:1014D000C2F898304FF0B0430D4ADA604FF0B04395
:1014E0000B4A1A614FF0B0431B684FF0B04223F42F
:1014F000802313604FF0B04300229A6100BFBD46C5
:101500005DF8047B704700BF00ED00E0FBFEF6FADB
:101510000010042280B582B000AF0023FB710C4B99
:101520001B680B4A43F480731360032000F02AF910
:10153000002000F00FF80346002B02D00123FB71BE
:1015400001E0FFF725F9FB7918460837BD4680BD55
:101550000040005880B584B000AF78600023FB7372
:10156000174B1B78002B24D001F0C8FC0246144B0B
:101570001B7819464FF47A73B3FBF1F3B2FBF3F324
:10158000184600F024F90346002B0FD17B680F2B7F
:1015900009D8002279684FF0FF3000F0FEF8094AC0
:1015A0007B68136007E00123FB7304E00123FB73F6
:1015B00001E00123FB73FB7B18461037BD4680BD5D
:1015C000100000200C00002080B400AF064B1B78F8
:1015D0001A46064B1B681344044A136000BFBD46FD
:1015E0005DF8047B704700BF100000207C050020E0
:1015F00080B400AF034B1B681846BD465DF8047B02
:10160000704700BF7C05002080B400AF034B1B680F
:101610001846BD465DF8047B704700BF0C000020F3
:1016200080B485B000AF78607B6803F00703FB608F
:101630000C4BDB68BB60BA684FF6FF031340BB601E
:10164000FB681A02BB68134343F0BF6343F40033E3
:10165000BB60044ABB68D36000BF1437BD465DF869
:10166000047B704700ED00E080B400AF044BDB6802
:101670001B0A03F007031846BD465DF8047B70475C
:1016800000ED00E080B483B000AF03463960FB7129
:1016900097F90730002B0ADB3B68DAB20C4997F95F
:1016A00007301201D2B20B4483F800230AE03B68F2
:1016B000DAB20849FB7903F00F03043B1201D2B2FE
:1016C0000B441A7600BF0C37BD465DF8047B7047AB
:1016D00000E100E000ED00E080B489B000AFF86008
:1016E000B9607A60FB6803F00703FB61FB69C3F133
:1016F0000703042B28BF0423BB61FB690433062BBB
:1017000002D9FB69033B00E000237B614FF0FF320D
:10171000BB6902FA03F3DA43BB681A407B699A405B
:101720004FF0FF317B6901FA03F3D9437B680B402B
:10173000134318462437BD465DF8047B704700000C
:1017400080B582B000AF78607B68013BB3F1807FE9
:1017500001D301230FE00A4A7B68013B53600F214C
:101760004FF0FF30FFF78EFF054B00229A60044BCD
:1017700007221A60002318460837BD4680BD00BF07
:1017800010E000E080B582B000AF78607868FFF7C5
:1017900047FF00BF0837BD4680BD80B586B000AFAB
:1017A0000346B9607A60FB73FFF75EFF78617A6881
:1017B000B9687869FFF790FF024697F90F30114634
:1017C0001846FFF75FFF00BF1837BD4680BD80B5E4
:1017D00082B000AF78607868FFF7B2FF0346184622
:1017E0000837BD4680BD000080B586B000AFF86008
:1017F000B960C7E900231C4B1B78012B01D10223E0
:101800002DE0194B01221A70174B00225A604FF439
:101810007A7000F069F80346FB75FB7D002B1AD146
:10182000FB68012B05D1D7E90023B86800F0CCF89C
:1018300004E03B681946B86802F01EF94FF47A706C
:1018400000F052F80346FB75084B5A69FB68DB430E
:10185000064913404B61044B00221A70FB7D184669
:101860001837BD4680BD00BF8005002000400058ED
:1018700080B483B000AF0023FB710B4B5B69002B7E
:101880000BDA094B094A9A60074B094A9A60064BE2
:101890005B69002B01DA0123FB71FB7918460C37D9
:1018A000BD465DF8047B7047004000582301674542
:1018B000AB89EFCD80B483B000AF0023FB71094B3F
:1018C0005B69084A43F000435361064B5B69002B98
:1018D00001DB0123FB71FB7918460C37BD465DF82F
:1018E000047B70470040005880B584B000AF78603A
:1018F000FFF77EFEB86009E0FFF77AFE0246BB689C
:10190000D31A7A689A4201D8032354E02C4B1B69FE
:1019100003F48033B3F5803FEED0294B1B69FB60A5
:10192000FB6803F00103002B02D0254B01221A6152
:10193000FB6803F40043002B07D0214B4FF4004217
:101940001A61FB6823F40043FB60FA684CF2FA3337
:101950001340FB60FB6803F04043002B07D0184B9B
:101960009A69FB6803F04043154913438B61FB6898
:1019700023F04043002B04D0114AFB6823F040437E
:101980001361FB68002B0ED00E4AFB6853600123E5
:1019900011E0FFF72DFE0246BB68D31A7A689A421F
:1019A00001D8032307E0064B1B6903F48023B3F53A
:1019B000802FEED0002318461037BD4680BD00BFF3
:1019C000004000588005002080B485B000AFF8606A
:1019D000C7E900230E4B5B690D4A43F001035361D5
:1019E000FB683A681A60BFF36F8F00BFD7E9000148
:1019F0004FF000024FF000030A000023F9680431A1
:101A000013460B6000BF1437BD465DF8047B70477A
:101A10000040005880B487B000AF78603960002380
:101A20007B614CE13B681A6801217B6901FA03F391
:101A30001340FB60FB68002B00F03E813B685B6855
:101A400003F00303012B05D03B685B6803F003033D
:101A5000022B30D17B689B683B617B695B00032272
:101A600002FA03F3DB433A6913403B613B68DA68EF
:101A70007B695B0002FA03F33A6913433B617B68BD
:101A80003A699A607B685B683B6101227B6902FA74
:101A900003F3DB433A6913403B613B685B681B0916
:101AA00003F001027B6902FA03F33A6913433B61D5
:101AB0007B683A695A603B685B6803F00303032B59
:101AC00017D07B68DB683B617B695B00032202FA0D
:101AD00003F3DB433A6913403B613B689A687B69D7
:101AE0005B0002FA03F33A6913433B617B683A698E
:101AF000DA603B685B6803F00303022B23D17B6948
:101B0000DA087B68083253F822303B617B6903F0C6
:101B100007039B000F2202FA03F3DB433A691340E9
:101B20003B613B681A697B6903F007039B0002FA7B
:101B300003F33A6913433B617B69DA087B68083237
:101B4000396943F822107B681B683B617B695B0045
:101B5000032202FA03F3DB433A6913403B613B681B
:101B60005B6803F003027B695B0002FA03F33A69E6
:101B700013433B617B683A691A603B685B6803F416
:101B80004033002B00F09880544A7B699B08023355
:101B900052F823303B617B6903F003039B000F2263
:101BA00002FA03F3DB433A6913403B617B68B3F10C
:101BB000904F19D07B684A4A934213D07B68494AB8
:101BC00093420DD07B68484A934207D07B68474ACE
:101BD000934201D1042308E0072306E0032304E035
:101BE000022302E0012300E000237A6902F00302ED
:101BF000920093403A6913433B6138497B699B08E3
:101C000002333A6941F82320394B1B683B61FB687A
:101C1000DB433A6913403B613B685B6803F4801324
:101C2000002B03D03A69FB6813433B61304A3B69A0
:101C300013602F4B5B683B61FB68DB433A691340E1
:101C40003B613B685B6803F40013002B03D03A69E7
:101C5000FB6813433B61264A3B695360244BD3F82E
:101C600080303B61FB68DB433A6913403B613B6872
:101C70005B6803F48033002B03D03A69FB6813439D
:101C80003B611B4A3B69C2F88030194BD3F8843062
:101C90003B61FB68DB433A6913403B613B685B682F
:101CA00003F40033002B03D03A69FB6813433B6114
:101CB0000F4A3B69C2F884307B6901337B613B6822
:101CC0001A687B6922FA03F3002B7FF4ABAE00BFE6
:101CD00000BF1C37BD465DF8047B70470000014023
:101CE0000004004800080048000C004800100048AC
:101CF0000008005880B400AF054B1B68044A43F449
:101D00008073136000BFBD465DF8047B704700BF61
:101D10000004005880B400AF044B1B6803F4C06398
:101D20001846BD465DF8047B704700BF00040058AC
:101D300080B400AF4FF0B0431B6803F48013B3F5D9
:101D4000801F01D1012300E000231846BD465DF845
:101D5000047B704780B400AF4FF0B0431B684FF076
:101D6000B04243F48033136000BFBD465DF8047B8E
:101D7000704780B400AF4FF0B0431B684FF0B042E3
:101D800023F48033136000BFBD465DF8047B7047C9
:101D900080B400AF4FF0B0431B6803F40033B3F5D9
:101DA000003F01D1012300E000231846BD465DF845
:101DB000047B704780B400AF4FF0B0431B684FF016
:101DC000B04243F48073136000BFBD465DF8047BEE
:101DD000704780B400AF4FF0B0431B684FF0B04283
:101DE00023F48073136000BFBD465DF8047B704729
:101DF00080B400AF4FF0B0431B6803F48063B3F5C9
:101E0000806F01D1012300E000231846BD465DF834
:101E1000047B704780B483B000AF78604FF0B0436C
:101E20005B6823F0FE427B681B064FF0B041134312
:101E30004B6000BF0C37BD465DF8047B704780B433
:101E400000AF4FF0B043D3F898304FF0B04243F0BA
:101E50000103C2F8983000BFBD465DF8047B7047AF
:101E600080B400AF4FF0B043D3F898304FF0B04299
:101E700023F00103C2F8983000BFBD465DF8047B33
:101E8000704780B400AF4FF0B043D3F8983003F000
:101E90000203022B01D1012300E000231846BD46B6
:101EA0005DF8047B704780B400AF4FF0B043D3F8C7
:101EB00090304FF0B04243F00103C2F8903000BFC1
:101EC000BD465DF8047B704780B400AF4FF0B0436F
:101ED000D3F890304FF0B04223F00103C2F89030B5
:101EE00000BFBD465DF8047B704780B400AF4FF083
:101EF000B043D3F890304FF0B04243F00403C2F83F
:101F0000903000BFBD465DF8047B704780B400AFE1
:101F10004FF0B043D3F890304FF0B04223F00403B9
:101F2000C2F8903000BFBD465DF8047B704780B4B6
:101F300000AF4FF0B043D3F8903003F00203022B10
:101F400001D1012300E000231846BD465DF8047B63
:101F5000704780B400AF4FF0B043D3F894304FF0E7
:101F6000B04243F00103C2F8943000BFBD465DF8B3
:101F7000047B704780B400AF4FF0B043D3F8943087
:101F80004FF0B04223F00103C2F8943000BFBD46C9
:101F90005DF8047B704780B400AF4FF0B043D3F8D6
:101FA000943003F00203022B01D1012300E000234F
:101FB0001846BD465DF8047B704780B400AF4FF013
:101FC000B043D3F894304FF0B04243F00403C2F86A
:101FD000943000BFBD465DF8047B704780B400AF0D
:101FE0004FF0B043D3F894304FF0B04223F00403E5
:101FF000C2F8943000BFBD465DF8047B704780B4E2
:1020000000AF4FF0B043D3F8943003F00803082B2F
:1020100001D1012300E000231846BD465DF8047B92
:10202000704780B483B000AF78604FF0B043D3F80E
:10203000943023F470627B681B024FF0B04113436D
:10204000C1F8943000BF0C37BD465DF8047B704783
:1020500080B400AF4FF0B0431B684FF0B04243F084
:102060000103136000BFBD465DF8047B704780B478
:1020700000AF4FF0B0431B684FF0B04223F00103B4
:10208000136000BFBD465DF8047B704780B400AFAD
:102090004FF0B0431B6803F00203022B01D1012370
:1020A00000E000231846BD465DF8047B704780B40D
:1020B00083B000AF78604FF0B0431B6823F0F002AC
:1020C0004FF0B0417B6813430B6000BF0C37BD4637
:1020D0005DF8047B704780B483B000AF4FF0B0432D
:1020E0001B6803F0F0037B607B68B02B01D9B02341
:1020F0007B607B6818460C37BD465DF8047B7047F3
:1021000080B483B000AF78604FF0B0435B6823F4D5
:102110007F427B681B024FF0B04113434B6000BF0E
:102120000C37BD465DF8047B704780B483B000AFC8
:1021300078604FF0B0439B6823F003024FF0B0414A
:102140007B6813438B6000BF0C37BD465DF8047B92
:10215000704780B400AF4FF0B0439B6803F00C03AE
:102160001846BD465DF8047B704780B483B000AF6D
:1021700078604FF0B0439B6823F0F0024FF0B0411D
:102180007B6813438B6000BF0C37BD465DF8047B52
:10219000704780B483B000AF78604FF0B043D3F89D
:1021A000083123F0F0024FF0B0417B681343C1F8CF
:1021B000083100BF0C37BD465DF8047B704780B422
:1021C00083B000AF78604FF0B043D3F8083123F00C
:1021D0000F027B681B094FF0B0411343C1F808316F
:1021E00000BF0C37BD465DF8047B704780B483B0F8
:1021F00000AF78604FF0B0439B6823F4E0624FF08B
:10220000B0417B6813438B6000BF0C37BD465DF85F
:10221000047B704780B483B000AF78604FF0B04368
:102220009B6823F460524FF0B0417B6813438B608E
:1022300000BF0C37BD465DF8047B704780B400AF2B
:102240004FF0B0439B6803F0F0031846BD465DF8BD
:10225000047B704780B400AF4FF0B043D3F808312F
:102260001B0103F0F0031846BD465DF8047B704780
:1022700080B483B000AF786039604FF0B0439B68A2
:1022800023F0FE4279683B680B434FF0B0411343A3
:102290008B6000BF0C37BD465DF8047B704780B48F
:1022A00000AF4FF0B0431B684FF0B04243F0807373
:1022B000136000BFBD465DF8047B704780B400AF7B
:1022C0004FF0B0431B684FF0B04223F080731360AF
:1022D00000BFBD465DF8047B704780B400AF4FF08F
:1022E000B0431B6803F00073B3F1007F01D10123F9
:1022F00000E000231846BD465DF8047B704780B4BB
:1023000000AF4FF0B043DB681B0A03F07F031846B1
:10231000BD465DF8047B704780B400AF4FF0B0431A
:10232000DB6803F060431846BD465DF8047B7047E8
:1023300080B400AF4FF0B043DB6803F07003184681
:10234000BD465DF8047B704780B400AF4FF0B043EA
:10235000DB6803F003031846BD465DF8047B704755
:1023600080B400AF4FF0B0439B6803F48033B3F503
:10237000803F01D1012300E000231846BD465DF8EF
:10238000047B704780B400AF4FF0B043D3F80831FE
:1023900003F40033B3F5003F01D1012300E0002333
:1023A0001846BD465DF8047B704780B400AF4FF01F
:1023B000B043D3F8083103F48033B3F5803F01D143
:1023C000012300E000231846BD465DF8047B7047FA
:1023D00080B400AF4FF0B0439B6803F40033B3F513
:1023E000003F01D1012300E000231846BD465DF8FF
:1023F000047B704780B400AF4FF0B0439B6803F498
:102400008023B3F5802F01D1012300E0002318467B
:10241000BD465DF8047B704790B58DB000AF786025
:102420007B68002B01D1012363E37B681B6803F009
:102430002003002B00F08D80FFF78BFEF862FFF782
:1024400083FFB862FB6A002B05D0FB6A0C2B47D1D7
:10245000BB6A012B44D17B68DB69002B01D10123CE
:1024600047E37B685C6AFFF736FE03469C4214D95B
:102470007B685B6A184600F055FD0346002B01D0CF
:10248000012336E37B685B6A1846FFF710FE7B6822
:102490001B6A1846FFF734FE13E07B685B6A184638
:1024A000FFF705FE7B681B6A1846FFF729FE7B686D
:1024B0005B6A184600F036FD0346002B01D001236D
:1024C00017E300F01BFD0346A44A1360A44B1B68EE
:1024D0001846FFF73FF80346002B39D0012308E3E5
:1024E0007B68DB69002B1ED0FFF7B2FDFFF780F899
:1024F000786208E0FFF77CF802467B6AD31A022B69
:1025000001D90323F5E2FFF7C1FD0346002BF1D00B
:102510007B685B6A1846FFF7CAFD7B681B6A184632
:10252000FFF7EEFD15E0FFF7A2FDFFF761F8786217
:1025300008E0FFF75DF802467B6AD31A022B01D947
:102540000323D6E2FFF7A2FD0346002BF1D100E002
:1025500000BF7B681B6803F00103002B47D0FFF727
:10256000F8FD3862FFF7F0FEF8613B6A082B05D0F2
:102570003B6A0C2B08D1FB69032B05D17B685B6898
:10258000002B34D10123B4E27B685B68B3F5803F54
:1025900002D1FFF7DFFB01E0FFF7EBFB7B685B6835
:1025A000002B12D0FFF724F8786208E0FFF720F83C
:1025B00002467B6AD31A642B01D9032399E2FFF701
:1025C000E7FB0346002BF1D011E0FFF711F878622A
:1025D00008E0FFF70DF802467B6AD31A642B01D995
:1025E000032386E2FFF7D4FB0346002BF1D17B687F
:1025F0001B6803F00203002B4CD0FFF7AAFDB86163
:10260000FFF7A2FE7861BB69042B05D0BB690C2BD8
:102610000ED17B69022B0BD17B68DB68002B01D1CB
:10262000012366E27B681B691846FFF7F3FB31E084
:102630007B68DB68002B19D0FFF7BCFBFEF7D8FFE7
:10264000786208E0FEF7D4FF02467B6AD31A022BB9
:1026500001D903234DE2FFF7CBFB0346002BF1D05A
:102660007B681B691846FFF7D5FB13E0FFF7B1FB4A
:10267000FEF7BEFF786208E0FEF7BAFF02467B6A0B
:10268000D31A022B01D9032333E2FFF7B1FB034630
:10269000002BF1D17B681B6803F00803002B06D1E7
:1026A0007B681B6803F01003002B00F0A3807B689D
:1026B0005B69002B76D07B681B6803F01003002B4E
:1026C00046D0FFF768FC0346002B13D1FFF741FC0F
:1026D000FEF78EFF786208E0FEF78AFF02467B6A0B
:1026E000D31A022B01D9032303E2FFF754FC03465C
:1026F000002BF1D0FFF761FCFEF77AFF786208E06B
:10270000FEF776FF02467B6AD31A032B01D9032317
:10271000EFE1FFF774FC0346002BF1D07B689B6967
:102720001846FFF77EFCFFF725FCFEF761FF786295
:1027300008E0FEF75DFF02467B6AD31A022B01D93F
:102740000323D6E1FFF727FC0346002BF1D151E02C
:10275000FFF7FFFBFEF74CFF78620CE0080000205B
:102760000C000020FEF744FF02467B6AD31A022BBE
:1027700001D90323BDE1FFF70EFC0346002BF1D086
:10278000FFF72CFC08E0FEF733FF02467B6AD31A02
:10279000032B01D90323ACE1FFF731FC0346002BE7
:1027A000F1D127E0FFF71AFCFEF722FF786208E07C
:1027B000FEF71EFF02467B6AD31A032B01D90323BF
:1027C00097E1FFF71CFC0346002BF1D1FFF7D2FB8A
:1027D000FEF70EFF786208E0FEF70AFF02467B6A0A
:1027E000D31A022B01D9032383E1FFF7D4FB03465D
:1027F000002BF1D17B681B6803F00403002B5BD036
:10280000A74B1B6803F48073002B14D1FFF772FAF7
:10281000FEF7EEFE786208E0FEF7EAFE02467B6A0B
:10282000D31A022B01D9032363E19D4B1B6803F4E8
:102830008073002BF0D07B689B68012B02D1FFF7DF
:1028400032FB0CE07B689B68052B04D1FFF74DFB46
:10285000FFF729FB03E0FFF737FBFFF757FB7B6828
:102860009B68002B14D0FEF7C3FE78620AE0FEF7E7
:10287000BFFE02467B6AD31A41F28832934201D9E5
:10288000032336E1FFF753FB0346002BEFD013E0A1
:10289000FEF7AEFE78620AE0FEF7AAFE02467B6A09
:1028A000D31A41F28832934201D9032321E1FFF781
:1028B0003EFB0346002BEFD17B681B6803F040030F
:1028C000002B2CD07B689B6A002B14D0FFF7B7FA43
:1028D000FEF78EFE786208E0FEF78AFE02467B6A0B
:1028E000D31A022B01D9032303E1FFF7CAFA0346E7
:1028F000002BF1D013E0FFF7B3FAFEF779FE786210
:1029000008E0FEF775FE02467B6AD31A022B01D956
:102910000323EEE0FFF7B5FA0346002BF1D17B6805
:10292000DB6A002B00F0E480FFF713FC38614FF006
:10293000B043DB68FB607B68DB6A022B40F0B4804D
:10294000FB6803F003027B681B6B9A4223D1FB6890
:1029500003F070027B685B6B9A421CD1FB681B0A18
:1029600003F07F027B689B6B9A4214D1FB6803F4EF
:1029700078127B68DB6B9A420DD1FB6803F06062D2
:102980007B681B6C9A4206D1FB6803F060427B684F
:102990005B6C9A425DD03B690C2B58D04FF0B04332
:1029A0001B6803F08063002B01D00123A1E0FFF737
:1029B00085FCFEF71DFE786208E0FEF719FE024670
:1029C0007B6AD31A022B01D9032392E04FF0B04364
:1029D0001B6803F00073002BEFD14FF0B043DA68AF
:1029E000304B13407A68116B7A68526B11437A68E6
:1029F000926B120211437A68D26B11437A68126C9F
:102A000011437A68526C0A434FF0B0411343CB60D4
:102A1000FFF745FC4FF0B043DB684FF0B04243F0A6
:102A20008053D360FEF7E4FD786208E0FEF7E0FD36
:102A300002467B6AD31A022B01D9032359E04FF0D7
:102A4000B0431B6803F00073002BEFD050E001236C
:102A50004FE04FF0B0431B6803F00073002B47D1E9
:102A6000FFF71DFC4FF0B043DB684FF0B04243F07E
:102A70008053D360FEF7BCFD786208E0FEF7B8FD36
:102A800002467B6AD31A022B01D9032331E04FF0AF
:102A9000B0431B6803F00073002BEFD028E000BFA9
:102AA000000400588C80C1113B690C2B1ED0FFF72D
:102AB00005FCFEF79DFD786208E0FEF799FD0246F1
:102AC0007B6AD31A022B01D9032312E04FF0B043E3
:102AD0001B6803F00073002BEFD14FF0B043DA68AE
:102AE0004FF0B041054B1340CB6001E0012300E003
:102AF000002318463437BD4690BD00BFFCFFFEEEF4
:102B000080B584B000AF786039607B68002B01D15C
:102B100001232DE1984B1B6803F007033A689A42A2
:102B20001BD9954B1B6823F0070293493B6813435D
:102B30000B60FEF75DFDF86008E0FEF759FD024608
:102B4000FB68D31A022B01D9032311E18A4B1B68BE
:102B500003F007033A689A42EFD17B681B6803F0E1
:102B60000203002B16D07B689B681846FFF7FDFA1E
:102B7000FEF73EFDF86008E0FEF73AFD0246FB680E
:102B8000D31A022B01D90323F2E0FFF7E9FB034636
:102B9000002BF1D07B681B6803F02003002B16D0BC
:102BA0007B685B691846FFF7F4FAFEF721FDF860D1
:102BB00008E0FEF71DFD0246FB68D31A022B01D97F
:102BC0000323D5E0FFF7DEFB0346002BF1D07B6843
:102BD0001B6803F04003002B16D07B689B691846E6
:102BE000FFF7EDFAFEF704FDF86008E0FEF700FDE0
:102BF0000246FB68D31A022B01D90323B8E0FFF782
:102C0000D4FB0346002BF1D07B681B6803F0040360
:102C1000002B16D07B68DB681846FFF7E7FAFEF753
:102C2000E7FCF86008E0FEF7E3FC0246FB68D31A15
:102C3000022B01D903239BE0FFF7CAFB0346002BBD
:102C4000F1D07B681B6803F00803002B17D07B686A
:102C50001B69DB001846FFF7DDFAFEF7C9FCF860D8
:102C600008E0FEF7C5FC0246FB68D31A022B01D927
:102C700003237DE0FFF7BEFB0346002BF1D07B680A
:102C80001B6803F00103002B43D07B685B68022BB9
:102C900006D1FFF77DF80346002B1ED1012367E024
:102CA0007B685B68032B06D1FFF717FB0346002BFD
:102CB00013D101235CE07B685B68002B06D1FFF732
:102CC000E5F90346002B08D1012351E0FFF790F806
:102CD0000346002B01D101234AE07B685B6818465C
:102CE000FFF723FAFEF784FCF8600AE0FEF780FCA9
:102CF0000246FB68D31A41F28832934201D903237A
:102D000036E0FFF726FA02467B685B689B009A4232
:102D1000ECD1194B1B6803F007033A689A421BD2A7
:102D2000154B1B6823F0070213493B6813430B60E4
:102D3000FEF75EFCF86008E0FEF75AFC0246FB680E
:102D4000D31A022B01D9032312E00B4B1B6803F0AB
:102D500007033A689A42EFD100F0D0F80346074AD9
:102D60001360FEF751FC03461846FEF7F3FB0346DB
:102D700018461037BD4680BD0040005808000020AE
:102D800080B58CB000AFF860B9607A6002237B61D7
:102D90000323FB610023BB61FB6803F08053FB62EC
:102DA000FB681B0C03F00F0303F590139B02BB623F
:102DB000FB681B0C03F00F037B624FF0B043DA6C2F
:102DC00001217B6A01FA03F34FF0B0411343CB6456
:102DD000FB689BB23B61FB681B0DDBB23B6207F1FA
:102DE00010031946B86AFEF715FEFB6A002B04D1E2
:102DF0007968B868FFF73CFA10E0FB6AB3F1805FCE
:102E000004D17968B868FFF733FA07E0FB6AB3F1D9
:102E1000005F03D17968B868FFF72AFA00BF30373E
:102E2000BD4680BD90B585B000AFFFF792F97860E0
:102E30007B68002B0AD1FFF74EF903461B0903F00C
:102E40000F032B4A52F82330FB604BE07B68042BC6
:102E500002D1284BFB6045E07B68082B0AD1FEF7C6
:102E600067FF0346012B02D1224BFB603AE0224B65
:102E7000FB6037E0FFF768FA38603B68022B03D04D
:102E80003B68032B03D00DE01A4BBB6015E0FEF747
:102E90004FFF0346012B02D1164BBB600DE0164BD2
:102EA000BB600AE0FFF717F903461B0903F00F03A5
:102EB0000F4A52F82330BB6000BFFFF720FA0246EA
:102EC000BB6803FB02F4FFF733FA03461B09013327
:102ED000B4FBF3F4FFF720FA03465B0F0133B4FBB6
:102EE000F3F3FB60FB6818461437BD4690BD00BF86
:102EF000143C00080024F4000048E80198B500AF35
:102F0000FFF790FF0446FFF799F903461B0903F00A
:102F10000F03034A52F82330B4FBF3F3184698BD6D
:102F2000D43B000890B585B000AF78607B68B02BCB
:102F300003D9154BDB6AFB6007E07B681B0903F0D4
:102F40000F03114A52F82330FB60FFF783F9034661
:102F50001B0903F00F030D4A52F82330FA68B2FB45
:102F6000F3F3BB60BB680A4AA2FB03239C0CFEF789
:102F7000D1FE03461946204600F00CF803461846D9
:102F80001437BD4690BD00BF143C0008D43B000878
:102F900083DE1B4390B593B000AF78603960374B48
:102FA00007F128040FCB84E80F00354A07F11C0312
:102FB00007CA83E80700334B07F10C040FCB84E802
:102FC0000F0000237B643B68B3F5007F1AD1002318
:102FD0003B6413E03B6C9B0048333B4453F8203C7C
:102FE0007A689A4207D83B6C9B0048333B4453F8BD
:102FF0003C3C7B6420E03B6C01333B643B6C032B2B
:10300000E8D919E00023FB6313E0FB6B9B00483316
:103010003B4453F82C3C7A689A4207D8FB6B9B00E0
:1030200048333B4453F83C3C7B6405E0FB6B013385
:10303000FB63FB6B022BE8D9134B1B6823F00702E1
:1030400011497B6C13430B60FEF7D2FAB86308E0BA
:10305000FEF7CEFA0246BB6BD31A022B01D903232B
:1030600007E0094B1B6803F007037A6C9A42EFD123
:10307000002318464C37BD4690BD00BF843B000876
:10308000943B0008A03B00080040005880B400AF0B
:103090004FF0B043D3F8903003F00103012B01D17E
:1030A000012300E000231846BD465DF8047B70470D
:1030B00080B400AF4FF0B043D3F8903003F0020378
:1030C000022B01D1012300E000231846BD465DF824
:1030D000047B704780B483B000AF78604FF0B0439A
:1030E000D3F8943023F440424FF0B0417B6813434F
:1030F000C1F8943000BF0C37BD465DF8047B7047C3
:1031000080B483B000AF78604FF0B0435B6A23F0C7
:1031100003024FF0B0417B6813434B6200BF0C3792
:10312000BD465DF8047B704780B483B000AF786023
:103130004FF0B0435B6A23F030024FF0B0417B6840
:1031400013434B6200BF0C37BD465DF8047B7047EC
:1031500080B483B000AF78604FF0B043D3F88830CC
:1031600023F003024FF0B0417B681343C1F888306D
:1031700000BF0C37BD465DF8047B704780B483B058
:1031800000AF78604FF0B043D3F8883023F440624A
:103190004FF0B0417B681343C1F8883000BF0C3753
:1031A000BD465DF8047B704780B483B000AF7860A3
:1031B0004FF0B043D3F888207B681B0903F47F23CA
:1031C000DB431A407B681B0103F47F234FF0B041BF
:1031D0001343C1F8883000BF0C37BD465DF8047B4F
:1031E000704780B483B000AF78604FF0B043D3F83D
:1031F00088207B681B0C1B04DB431A407B681B0484
:103200004FF0B0411343C1F8883000BF0C37BD46C2
:103210005DF8047B704780B483B000AF78604FF0F6
:10322000B043D3F8883023F440024FF0B0417B68BC
:103230001343C1F8883000BF0C37BD465DF8047BEE
:10324000704780B483B000AF78604FF0B043D3F8DC
:10325000883023F040424FF0B0417B681343C1F8FF
:10326000883000BF0C37BD465DF8047B704780B4E2
:1032700083B000AF78604FF0B043D3F8883023F0CC
:1032800040624FF0B0417B681343C1F8883000BF03
:103290000C37BD465DF8047B704780B582B000AF47
:1032A00078607868FFF7E3FF00BF0837BD4680BD50
:1032B00080B483B000AF78604FF0B043D3F888306B
:1032C00023F040524FF0B0417B681343C1F888307F
:1032D00000BF0C37BD465DF8047B704780B483B0F7
:1032E00000AF78604FF0B043D3F8903023F44072D1
:1032F0004FF0B0417B681343C1F8903000BF0C37EA
:10330000BD465DF8047B704780B400AF4FF0B0431A
:10331000D3F8903003F440731846BD465DF8047B43
:10332000704780B400AF4FF0B043D3F890304FF007
:10333000B04243F48033C2F8903000BFBD465DF820
:10334000047B704780B400AF4FF0B043D3F89030A7
:103350004FF0B04223F48033C2F8903000BFBD4636
:103360005DF8047B704780B400AF4FF0B0431B683A
:103370004FF0B04243F08063136000BFBD465DF87C
:10338000047B704780B400AF4FF0B0431B684FF030
:10339000B04223F08063136000BFBD465DF8047B3C
:1033A000704780B400AF4FF0B0431B6803F0006378
:1033B000B3F1006F01D1012300E000231846BD46A0
:1033C0005DF8047B704780B588B000AF786000235B
:1033D000FB770023BB777B681B6803F04003002B5F
:1033E00034D07B681B6BB3F5400F21D0B3F5400F91
:1033F0001BD8B3F5000F1DD0B3F5000F15D8002B67
:103400000BD0B3F5800F10D14FF0B043DB684FF015
:10341000B04243F48033D3600DE07B680433184638
:1034200000F047F90346FB7705E00123FB7702E054
:1034300000BF00E000BFFB7F002B05D17B681B6B4A
:103440001846FFF7E8FE01E0FB7FBB777B681B684F
:1034500003F40063002B46D0FFF756FFB8617B688A
:103460001B6CBA699A423CD0FEF744FCBB69002B46
:1034700005D17B681B6C1846FFF730FF2EE04FF03C
:10348000B043D3F890307B61FFF74BFFFFF75AFF53
:103490007B6923F440727B681B6C13437B614FF0A4
:1034A000B0427B69C2F89030FFF7F0FD0346012B74
:1034B00014D1FEF79DF838610BE0FEF799F802464B
:1034C0003B69D31A41F28832934202D90323FB7736
:1034D00004E0FFF7EDFD0346012BEED1FB7FBB7748
:1034E00001E0FB7FBB777B681B6803F00103002BC7
:1034F00004D07B689B691846FFF72AFE7B681B682F
:1035000003F00203002B04D07B68DB691846FFF749
:1035100035FE7B681B6803F01003002B04D07B682A
:103520009B6A1846FFF75DFE7B681B6803F020036B
:10353000002B04D07B68DB6A1846FFF752FE7B68DD
:103540001B6803F00403002B04D07B681B6A184639
:10355000FFF72AFE7B681B6803F00803002B04D0EA
:103560007B685B6A1846FFF71FFE7B681B6803F4E5
:103570008073002B22D07B685B6B1846FFF78DFEB3
:103580007B685B6BB3F1006F07D14FF0B043DB6832
:103590004FF0B04243F08073D3607B685B6BB3F154
:1035A000806F0BD17B680433184600F0DDF80346CA
:1035B000FB77FB7F002B01D0FB7FBB777B681B6811
:1035C00003F40073002B2BD07B689B6BB3F1804F0F
:1035D00008D07B689B6BB3F1004F03D07B689B6B7B
:1035E000002B05D17B689B6B1846FFF72AFE0AE08B
:1035F0007B689B6B23F08053FB600020FFF721FE6C
:10360000F868FFF734FE7B689B6BB3F1C05F07D1AE
:103610004FF0B043DB684FF0B04243F08073D360AB
:103620007B681B6803F48063002B22D07B68DB6B14
:103630001846FFF73DFE7B68DB6BB3F1005F07D1F7
:103640004FF0B043DB684FF0B04243F48033D360B7
:103650007B68DB6BB3F1805F0BD17B68043318466A
:1036600000F0DDF80346FB77FB7F002B01D0FB7FEA
:10367000BB777B681B6803F48053002B04D07B6806
:103680005B6C1846FFF726FD7B681B6803F400534C
:10369000002B09D07B68DB6C1846FFF745FD7B6883
:1036A0009B6C1846FFF72CFDBB7F18462037BD46A4
:1036B00080BD80B584B000AF78600023FB73FFF756
:1036C00061FEFDF795FFB86009E0FDF791FF024646
:1036D000BB68D31A022B02D90323FB7304E0FFF764
:1036E00060FE0346002BF0D1FB7B002B37D14FF05F
:1036F000B0431B6923F4FE427B681B681B024FF03A
:10370000B04113430B614FF0B0431B6923F47812AF
:103710007B685B684FF0B04113430B61FFF723FEFA
:10372000FDF766FFB86009E0FDF762FF0246BB687F
:10373000D31A022B02D90323FB7304E0FFF731FEF7
:103740000346012BF0D1FB7B002B08D14FF0B04397
:103750001A697B681B694FF0B04113430B61FB7B17
:1037600018461037BD4680BD80B584B000AF786084
:103770000023FB73FFF706FEFDF73AFFB86009E090
:10378000FDF736FF0246BB68D31A022B02D903238A
:10379000FB7304E0FFF705FE0346002BF0D1FB7B33
:1037A000002B37D14FF0B0431B6923F4FE427B68F6
:1037B0001B681B024FF0B04113430B614FF0B04345
:1037C0001B6923F060627B689B684FF0B041134334
:1037D0000B61FFF7C8FDFDF70BFFB86009E0FDF7CF
:1037E00007FF0246BB68D31A022B02D90323FB73DF
:1037F00004E0FFF7D6FD0346012BF0D1FB7B002B45
:1038000008D14FF0B0431A697B681B694FF0B04193
:1038100013430B61FB7B18461037BD4680BD80B556
:1038200084B000AF78600023FB73FFF7ABFDFDF7BA
:10383000DFFEB86009E0FDF7DBFE0246BB68D31A85
:10384000022B02D90323FB7304E0FFF7AAFD034612
:10385000002BF0D1FB7B002B37D14FF0B0431B691D
:1038600023F4FE427B681B681B024FF0B0411343F8
:103870000B614FF0B0431B6923F060427B68DB684B
:103880004FF0B04113430B61FFF76DFDFDF7B0FE44
:10389000B86009E0FDF7ACFE0246BB68D31A022B04
:1038A00002D90323FB7304E0FFF77BFD0346012BE2
:1038B000F0D1FB7B002B08D14FF0B0431A697B6835
:1038C0001B694FF0B04113430B61FB7B1846103767
:1038D000BD4680BD80B582B000AF78607B68002BAC
:1038E00001D1012327E07B685B7ADBB2002B05D195
:1038F0007B6800221A727868FCF720FF7B6802223E
:103900005A727B681B681B6823F020017B685A6829
:103910007B681B680A431A607B681B681A687B68AF
:103920001B6842F004021A607B6801225A727B68AD
:103930000022DA60002318460837BD4680BD80B5F6
:1039400084B000AF786039600023FB737B681B7A1A
:10395000012B01D1022344E07B6801221A727B68AB
:103960005B7ADBB2012B33D17B6802225A72FDF7FE
:103970003FFEB86018E0FDF73BFE0246BB68D31A75
:10398000022B11D97B681B685B6803F00103012BD4
:103990000AD07B6801225A727B680222DA607B6857
:1039A00000221A7201231CE07B681B685B6803F02D
:1039B0000103012BDFD17B681B689A687B681A6161
:1039C0007B681A693B681A607B6801225A7204E0BE
:1039D0007B680422DA600123FB737B6800221A7281
:1039E000FB7B18461037BD4680BD000070B50D4DFD
:1039F0000D4C641BA4100026A64209D10B4D0C4CA3
:103A000000F02EF8641BA4100026A64205D170BD5C
:103A100055F8043B98470136EEE755F8043B9847C4
:103A20000136F2E7543C0008543C0008543C0008BE
:103A3000583C00080A44914200F1FF3300D170471E
:103A400010B511F8014B03F8014F9142F9D110BDA7
:103A500002440346934200D1704703F8011BF9E783
:103A6000F8B500BFF8BC08BC9E467047F8B500BF6B
:103A7000F8BC08BC9E4670475FF800F015000020B7
:103A800076312E302E30000053544D3332574235AC
:103A900035204853452043414C494220525454203C
:103AA00025730D0A000000004853452054756E65CB
:103AB0002056616C75653A20256420284D696E3A60
:103AC0002030207C204D61783A203633290D0A00C1
:103AD0004552524F523A204E6F206D6F7265204F03
:103AE00054502073706163653B2070726F6365642E
:103AF0007572652061626F727465640053617665EA
:103B000064204853452054756E652056616C756578
:103B10003A202564207C2053746F72656420696E9E
:103B2000204F545020416464726573733A2030789A
:103B300025580D0A0000000043757272656E7420EE
:103B40004853452054756E65642056616C75653A1E
:103B50002025640D0A0000004E6F204375727265C7
:103B60006E74204853452054756E65642056616C10
:103B700075650D0A000000005465726D696E616C18
:103B800000000000120000002400000036000000C9
:103B900040000000060000000C00000010000000C3
:103BA000000000000100000002000000030000000F
:103BB000000000000000545452205245474745532E
:103BC0000000000030313233343536373839414265
:103BD00043444546010000000300000005000000CA
:103BE0000100000001000000060000000A000000C3
:103BF0002000000002000000040000000800000097
:103C000010000000400000008000000000010000E3
:103C100000020000A0860100400D0300801A06008B
:103C200000350C0040420F0080841E0000093D005A
:103C300000127A000024F40000366E010048E8010A
:103C4000006CDC020000000000000000000000002A
:043C50000000000070
:043C540065010008FE
:043C5800410100081E
:103C5C0000093D00100000000100000080B489B094
:103C6C0000AF786039608023FB777B68BB613B6871
:103C7C007B61184B5B69174A43F480235361EFF364
:103C8C001083FB60FB683B6172B600BF7B691A68EE
:103C9C00BB691A60BB690433BB617B6904337B610C
:103CAC00FB7F013BFB77FB7F002BEFD100BF094B68
:103CBC001B6903F48033B3F5803FF8D03B69BB60DC
:103CCC00BB6883F3108800BF00BF2437BD465DF886
:083CDC00047B70470040005812
:0400000508001411CA
:00000001FF
